8=FIX.4.2|9=67|35=A|34=1|49=server|52=20191113-12:30:44.342|56=client|98=0|108=30|10=016|8=FIX.4.2|9=129|35=8|34=2|49=server|52=20191113-12:30:45.257|56=client|6=0|11=342|14=0|17=0|20=0|37=342|38=100|39=0|54=1|55=6758.T|150=0|151=100|10=021|8=FIX.4.2|9=125|35=8|34=3|49=server|52=20191113-12:30:45.260|56=client|6=0|11=342|14=0|17=1|20=0|37=342|38=5|39=0|54=2|55=6758.T|150=0|151=5|10=086|8=FIX.4.2|9=135|35=8|34=4|49=server|52=20191113-12:30:45.262|56=client|6=0|11=342|14=5|17=2|20=0|31=0|32=5|37=342|38=5|39=2|54=2|55=6758.T|150=2|151=0|10=009|8=FIX.4.2|9=138|35=8|34=5|49=server|52=20191113-12:30:45.264|56=client|6=0|11=342|14=5|17=3|20=0|31=0|32=5|37=342|38=100|39=1|54=1|55=6758.T|150=1|151=95|10=167|8=FIX.4.2|9=55|35=0|34=6|49=server|52=20191113-12:31:15.419|56=client|10=236|8=FIX.4.2|9=67|35=A|34=7|49=server|52=20191113-12:55:16.370|56=client|98=0|108=30|10=029|8=FIX.4.2|9=129|35=8|34=8|49=server|52=20191113-12:55:17.318|56=client|6=0|11=342|14=0|17=0|20=0|37=342|38=100|39=0|54=1|55=6758.T|150=0|151=100|10=031|8=FIX.4.2|9=125|35=8|34=9|49=server|52=20191113-12:55:17.322|56=client|6=0|11=342|14=0|17=1|20=0|37=342|38=5|39=0|54=2|55=6758.T|150=0|151=5|10=097|8=FIX.4.2|9=136|35=8|34=10|49=server|52=20191113-12:55:17.325|56=client|6=0|11=342|14=5|17=2|20=0|31=0|32=5|37=342|38=5|39=2|54=2|55=6758.T|150=2|151=0|10=061|8=FIX.4.2|9=139|35=8|34=11|49=server|52=20191113-12:55:17.329|56=client|6=0|11=342|14=5|17=3|20=0|31=0|32=5|37=342|38=100|39=1|54=1|55=6758.T|150=1|151=95|10=221|8=FIX.4.2|9=56|35=0|34=12|49=server|52=20191113-12:55:48.107|56=client|10=032|8=FIX.4.2|9=56|35=0|34=13|49=server|52=20191113-12:56:18.103|56=client|10=027|8=FIX.4.2|9=56|35=0|34=14|49=server|52=20191113-12:56:48.107|56=client|10=035|8=FIX.4.2|9=56|35=0|34=15|49=server|52=20191113-12:57:18.101|56=client|10=028|8=FIX.4.2|9=56|35=0|34=16|49=server|52=20191113-12:57:48.101|56=client|10=032|8=FIX.4.2|9=56|35=0|34=17|49=server|52=20191113-12:58:18.101|56=client|10=031|8=FIX.4.2|9=56|35=0|34=18|49=server|52=20191113-12:58:48.104|56=client|10=038|8=FIX.4.2|9=56|35=0|34=19|49=server|52=20191113-12:59:18.100|56=client|10=033|8=FIX.4.2|9=56|35=0|34=20|49=server|52=20191113-12:59:48.102|56=client|10=030|8=FIX.4.2|9=56|35=0|34=21|49=server|52=20191113-13:00:18.101|56=client|10=014|8=FIX.4.2|9=56|35=0|34=22|49=server|52=20191113-13:00:48.100|56=client|10=017|8=FIX.4.2|9=56|35=0|34=23|49=server|52=20191113-13:01:18.100|56=client|10=016|8=FIX.4.2|9=56|35=0|34=24|49=server|52=20191113-13:01:48.102|56=client|10=022|8=FIX.4.2|9=56|35=0|34=25|49=server|52=20191113-13:02:18.101|56=client|10=020|8=FIX.4.2|9=68|35=A|34=26|49=server|52=20191113-13:02:33.154|56=client|98=0|108=30|10=071|8=FIX.4.2|9=130|35=8|34=27|49=server|52=20191113-13:02:34.112|56=client|6=0|11=342|14=0|17=0|20=0|37=342|38=100|39=0|54=1|55=6758.T|150=0|151=100|10=056|8=FIX.4.2|9=126|35=8|34=28|49=server|52=20191113-13:02:34.115|56=client|6=0|11=342|14=0|17=1|20=0|37=342|38=5|39=0|54=2|55=6758.T|150=0|151=5|10=139|8=FIX.4.2|9=136|35=8|34=29|49=server|52=20191113-13:02:34.118|56=client|6=0|11=342|14=5|17=2|20=0|31=0|32=5|37=342|38=5|39=2|54=2|55=6758.T|150=2|151=0|10=063|8=FIX.4.2|9=139|35=8|34=30|49=server|52=20191113-13:02:34.120|56=client|6=0|11=342|14=5|17=3|20=0|31=0|32=5|37=342|38=100|39=1|54=1|55=6758.T|150=1|151=95|10=203|8=FIX.4.2|9=56|35=0|34=31|49=server|52=20191113-13:03:04.629|56=client|10=028|8=FIX.4.2|9=56|35=0|34=32|49=server|52=20191113-13:03:34.628|56=client|10=031|8=FIX.4.2|9=56|35=0|34=33|49=server|52=20191113-13:04:04.628|56=client|10=030|8=FIX.4.2|9=56|35=0|34=34|49=server|52=20191113-13:04:34.629|56=client|10=035|8=FIX.4.2|9=56|35=0|34=35|49=server|52=20191113-13:05:04.629|56=client|10=034|8=FIX.4.2|9=56|35=0|34=36|49=server|52=20191113-13:05:34.632|56=client|10=032|8=FIX.4.2|9=56|35=0|34=37|49=server|52=20191113-13:06:04.629|56=client|10=037|8=FIX.4.2|9=68|35=A|34=38|49=server|52=20191113-13:06:15.828|56=client|98=0|108=30|10=086|8=FIX.4.2|9=130|35=8|34=39|49=server|52=20191113-13:06:16.790|56=client|6=0|11=342|14=0|17=4|20=0|37=342|38=100|39=0|54=1|55=6758.T|150=0|151=100|10=079|8=FIX.4.2|9=126|35=8|34=40|49=server|52=20191113-13:06:16.807|56=client|6=0|11=342|14=0|17=5|20=0|37=342|38=5|39=0|54=2|55=6758.T|150=0|151=5|10=149|8=FIX.4.2|9=136|35=8|34=41|49=server|52=20191113-13:06:16.812|56=client|6=0|11=342|14=5|17=6|20=0|31=0|32=5|37=342|38=5|39=2|54=2|55=6758.T|150=2|151=0|10=066|8=FIX.4.2|9=139|35=8|34=42|49=server|52=20191113-13:06:16.815|56=client|6=0|11=342|14=5|17=7|20=0|31=0|32=5|37=342|38=100|39=1|54=1|55=6758.T|150=1|151=95|10=225|8=FIX.4.2|9=132|35=8|34=43|49=server|52=20191113-13:06:16.819|56=client|6=0|11=342|14=0|17=8|20=0|37=342|38=1000|39=0|54=1|55=6758.T|150=0|151=1000|10=178|8=FIX.4.2|9=56|35=0|34=44|49=server|52=20191113-13:06:47.631|56=client|10=035|8=FIX.4.2|9=56|35=0|34=45|49=server|52=20191113-13:07:17.627|56=client|10=039|8=FIX.4.2|9=56|35=0|34=46|49=server|52=20191113-13:07:47.627|56=client|10=043|8=FIX.4.2|9=56|35=0|34=47|49=server|52=20191113-13:08:17.627|56=client|10=042|8=FIX.4.2|9=56|35=0|34=48|49=server|52=20191113-13:08:47.627|56=client|10=046|8=FIX.4.2|9=56|35=0|34=49|49=server|52=20191113-13:09:17.633|56=client|10=042|8=FIX.4.2|9=56|35=0|34=50|49=server|52=20191113-13:09:47.627|56=client|10=040|8=FIX.4.2|9=56|35=0|34=51|49=server|52=20191113-13:10:17.627|56=client|10=030|8=FIX.4.2|9=56|35=0|34=52|49=server|52=20191113-13:10:47.628|56=client|10=035|8=FIX.4.2|9=56|35=0|34=53|49=server|52=20191113-13:11:17.628|56=client|10=034|8=FIX.4.2|9=56|35=0|34=54|49=server|52=20191113-13:11:47.629|56=client|10=039|8=FIX.4.2|9=56|35=0|34=55|49=server|52=20191113-13:12:17.633|56=client|10=033|8=FIX.4.2|9=56|35=0|34=56|49=server|52=20191113-13:12:47.627|56=client|10=040|8=FIX.4.2|9=56|35=0|34=57|49=server|52=20191113-13:13:17.626|56=client|10=038|8=FIX.4.2|9=56|35=0|34=58|49=server|52=20191113-13:13:47.628|56=client|10=044|8=FIX.4.2|9=56|35=0|34=59|49=server|52=20191113-13:14:17.628|56=client|10=043|8=FIX.4.2|9=56|35=0|34=60|49=server|52=20191113-13:14:47.628|56=client|10=038|8=FIX.4.2|9=56|35=0|34=61|49=server|52=20191113-13:15:17.627|56=client|10=036|8=FIX.4.2|9=56|35=0|34=62|49=server|52=20191113-13:15:47.632|56=client|10=036|8=FIX.4.2|9=56|35=0|34=63|49=server|52=20191113-13:16:17.624|56=client|10=036|8=FIX.4.2|9=56|35=0|34=64|49=server|52=20191113-13:16:47.633|56=client|10=040|8=FIX.4.2|9=56|35=0|34=65|49=server|52=20191113-13:17:17.628|56=client|10=043|8=FIX.4.2|9=56|35=0|34=66|49=server|52=20191113-13:17:47.628|56=client|10=047|8=FIX.4.2|9=56|35=0|34=67|49=server|52=20191113-13:18:17.628|56=client|10=046|8=FIX.4.2|9=56|35=0|34=68|49=server|52=20191113-13:18:47.628|56=client|10=050|8=FIX.4.2|9=56|35=0|34=69|49=server|52=20191113-13:19:17.633|56=client|10=045|8=FIX.4.2|9=56|35=0|34=70|49=server|52=20191113-13:19:47.632|56=client|10=039|8=FIX.4.2|9=56|35=0|34=71|49=server|52=20191113-13:20:17.628|56=client|10=034|8=FIX.4.2|9=56|35=0|34=72|49=server|52=20191113-13:20:47.629|56=client|10=039|8=FIX.4.2|9=56|35=0|34=73|49=server|52=20191113-13:21:17.629|56=client|10=038|8=FIX.4.2|9=56|35=0|34=74|49=server|52=20191113-13:21:47.629|56=client|10=042|8=FIX.4.2|9=56|35=0|34=75|49=server|52=20191113-13:22:17.629|56=client|10=041|8=FIX.4.2|9=56|35=0|34=76|49=server|52=20191113-13:22:47.624|56=client|10=040|8=FIX.4.2|9=56|35=0|34=77|49=server|52=20191113-13:23:17.629|56=client|10=044|8=FIX.4.2|9=56|35=0|34=78|49=server|52=20191113-13:23:47.623|56=client|10=042|8=FIX.4.2|9=56|35=0|34=79|49=server|52=20191113-13:24:17.629|56=client|10=047|8=FIX.4.2|9=56|35=0|34=80|49=server|52=20191113-13:24:47.632|56=client|10=036|8=FIX.4.2|9=56|35=0|34=81|49=server|52=20191113-13:25:17.624|56=client|10=036|8=FIX.4.2|9=56|35=0|34=82|49=server|52=20191113-13:25:47.623|56=client|10=039|8=FIX.4.2|9=56|35=0|34=83|49=server|52=20191113-13:26:17.628|56=client|10=043|8=FIX.4.2|9=56|35=0|34=84|49=server|52=20191113-13:26:47.624|56=client|10=043|8=FIX.4.2|9=56|35=0|34=85|49=server|52=20191113-13:27:17.628|56=client|10=046|8=FIX.4.2|9=56|35=0|34=86|49=server|52=20191113-13:27:47.628|56=client|10=050|8=FIX.4.2|9=56|35=0|34=87|49=server|52=20191113-13:28:17.623|56=client|10=044|8=FIX.4.2|9=56|35=0|34=88|49=server|52=20191113-13:28:47.623|56=client|10=048|8=FIX.4.2|9=56|35=0|34=89|49=server|52=20191113-13:29:17.623|56=client|10=047|8=FIX.4.2|9=56|35=0|34=90|49=server|52=20191113-13:29:47.628|56=client|10=047|8=FIX.4.2|9=56|35=0|34=91|49=server|52=20191113-13:30:17.628|56=client|10=037|8=FIX.4.2|9=56|35=0|34=92|49=server|52=20191113-13:30:47.623|56=client|10=036|8=FIX.4.2|9=56|35=0|34=93|49=server|52=20191113-13:31:17.628|56=client|10=040|8=FIX.4.2|9=56|35=0|34=94|49=server|52=20191113-13:31:47.623|56=client|10=039|8=FIX.4.2|9=56|35=0|34=95|49=server|52=20191113-13:32:17.622|56=client|10=037|8=FIX.4.2|9=56|35=0|34=96|49=server|52=20191113-13:32:47.623|56=client|10=042|8=FIX.4.2|9=56|35=0|34=97|49=server|52=20191113-13:33:17.623|56=client|10=041|8=FIX.4.2|9=56|35=0|34=98|49=server|52=20191113-13:33:47.624|56=client|10=046|8=FIX.4.2|9=56|35=0|34=99|49=server|52=20191113-13:34:17.627|56=client|10=048|8=FIX.4.2|9=57|35=0|34=100|49=server|52=20191113-13:34:47.624|56=client|10=080|8=FIX.4.2|9=57|35=0|34=101|49=server|52=20191113-13:35:17.620|56=client|10=075|8=FIX.4.2|9=57|35=0|34=102|49=server|52=20191113-13:35:47.624|56=client|10=083|8=FIX.4.2|9=57|35=0|34=103|49=server|52=20191113-13:36:17.624|56=client|10=082|8=FIX.4.2|9=57|35=0|34=104|49=server|52=20191113-13:36:47.625|56=client|10=087|8=FIX.4.2|9=57|35=0|34=105|49=server|52=20191113-13:37:17.627|56=client|10=088|8=FIX.4.2|9=57|35=0|34=106|49=server|52=20191113-13:37:47.619|56=client|10=093|8=FIX.4.2|9=57|35=0|34=107|49=server|52=20191113-13:38:17.624|56=client|10=088|8=FIX.4.2|9=57|35=0|34=108|49=server|52=20191113-13:38:47.623|56=client|10=091|8=FIX.4.2|9=57|35=0|34=109|49=server|52=20191113-13:39:17.628|56=client|10=095|8=FIX.4.2|9=57|35=0|34=110|49=server|52=20191113-13:39:47.624|56=client|10=086|8=FIX.4.2|9=57|35=0|34=111|49=server|52=20191113-13:40:17.627|56=client|10=079|8=FIX.4.2|9=57|35=0|34=112|49=server|52=20191113-13:40:47.627|56=client|10=083|8=FIX.4.2|9=57|35=0|34=113|49=server|52=20191113-13:41:17.626|56=client|10=081|8=FIX.4.2|9=57|35=0|34=114|49=server|52=20191113-13:41:47.620|56=client|10=079|8=FIX.4.2|9=57|35=0|34=115|49=server|52=20191113-13:42:17.617|56=client|10=084|8=FIX.4.2|9=57|35=0|34=116|49=server|52=20191113-13:42:47.617|56=client|10=088|8=FIX.4.2|9=57|35=0|34=117|49=server|52=20191113-13:43:17.623|56=client|10=084|8=FIX.4.2|9=57|35=0|34=118|49=server|52=20191113-13:43:47.618|56=client|10=092|8=FIX.4.2|9=57|35=0|34=119|49=server|52=20191113-13:44:17.618|56=client|10=091|8=FIX.4.2|9=57|35=0|34=120|49=server|52=20191113-13:44:47.617|56=client|10=085|8=FIX.4.2|9=57|35=0|34=121|49=server|52=20191113-13:45:17.618|56=client|10=085|8=FIX.4.2|9=57|35=0|34=122|49=server|52=20191113-13:45:47.618|56=client|10=089|8=FIX.4.2|9=57|35=0|34=123|49=server|52=20191113-13:46:17.617|56=client|10=087|8=FIX.4.2|9=57|35=0|34=124|49=server|52=20191113-13:46:47.621|56=client|10=086|8=FIX.4.2|9=57|35=0|34=125|49=server|52=20191113-13:47:17.623|56=client|10=087|8=FIX.4.2|9=57|35=0|34=126|49=server|52=20191113-13:47:47.618|56=client|10=095|8=FIX.4.2|9=57|35=0|34=127|49=server|52=20191113-13:48:17.618|56=client|10=094|8=FIX.4.2|9=57|35=0|34=128|49=server|52=20191113-13:48:47.617|56=client|10=097|8=FIX.4.2|9=57|35=0|34=129|49=server|52=20191113-13:49:17.618|56=client|10=097|8=FIX.4.2|9=57|35=0|34=130|49=server|52=20191113-13:49:47.618|56=client|10=092|8=FIX.4.2|9=57|35=0|34=131|49=server|52=20191113-13:50:17.621|56=client|10=076|8=FIX.4.2|9=57|35=0|34=132|49=server|52=20191113-13:50:47.618|56=client|10=086|8=FIX.4.2|9=57|35=0|34=133|49=server|52=20191113-13:51:17.617|56=client|10=084|8=FIX.4.2|9=57|35=0|34=134|49=server|52=20191113-13:51:47.621|56=client|10=083|8=FIX.4.2|9=57|35=0|34=135|49=server|52=20191113-13:52:17.617|56=client|10=087|8=FIX.4.2|9=57|35=0|34=136|49=server|52=20191113-13:52:47.618|56=client|10=092|8=FIX.4.2|9=57|35=0|34=137|49=server|52=20191113-13:53:17.619|56=client|10=092|8=FIX.4.2|9=57|35=0|34=138|49=server|52=20191113-13:53:47.613|56=client|10=090|8=FIX.4.2|9=57|35=0|34=139|49=server|52=20191113-13:54:17.619|56=client|10=095|8=FIX.4.2|9=57|35=0|34=140|49=server|52=20191113-13:54:47.620|56=client|10=082|8=FIX.4.2|9=57|35=0|34=141|49=server|52=20191113-13:55:17.614|56=client|10=084|8=FIX.4.2|9=57|35=0|34=142|49=server|52=20191113-13:55:47.613|56=client|10=087|8=FIX.4.2|9=57|35=0|34=143|49=server|52=20191113-13:56:17.613|56=client|10=086|8=FIX.4.2|9=57|35=0|34=144|49=server|52=20191113-13:56:47.613|56=client|10=090|8=FIX.4.2|9=57|35=0|34=145|49=server|52=20191113-13:57:17.611|56=client|10=087|8=FIX.4.2|9=57|35=0|34=146|49=server|52=20191113-13:57:47.613|56=client|10=093|8=FIX.4.2|9=57|35=0|34=147|49=server|52=20191113-13:58:17.618|56=client|10=097|8=FIX.4.2|9=57|35=0|34=148|49=server|52=20191113-13:58:47.612|56=client|10=095|8=FIX.4.2|9=57|35=0|34=149|49=server|52=20191113-13:59:17.619|56=client|10=101|8=FIX.4.2|9=57|35=0|34=150|49=server|52=20191113-13:59:47.613|56=client|10=090|8=FIX.4.2|9=57|35=0|34=151|49=server|52=20191113-14:00:17.613|56=client|10=075|8=FIX.4.2|9=57|35=0|34=152|49=server|52=20191113-14:00:47.613|56=client|10=079|8=FIX.4.2|9=57|35=0|34=153|49=server|52=20191113-14:01:17.614|56=client|10=079|8=FIX.4.2|9=57|35=0|34=154|49=server|52=20191113-14:01:47.620|56=client|10=080|8=FIX.4.2|9=57|35=0|34=155|49=server|52=20191113-14:02:17.613|56=client|10=081|8=FIX.4.2|9=57|35=0|34=156|49=server|52=20191113-14:02:47.618|56=client|10=090|8=FIX.4.2|9=57|35=0|34=157|49=server|52=20191113-14:03:17.613|56=client|10=084|8=FIX.4.2|9=57|35=0|34=158|49=server|52=20191113-14:03:47.612|56=client|10=087|8=FIX.4.2|9=57|35=0|34=159|49=server|52=20191113-14:04:17.613|56=client|10=087|8=FIX.4.2|9=57|35=0|34=160|49=server|52=20191113-14:04:47.619|56=client|10=088|8=FIX.4.2|9=57|35=0|34=161|49=server|52=20191113-14:05:17.613|56=client|10=081|8=FIX.4.2|9=57|35=0|34=162|49=server|52=20191113-14:05:47.613|56=client|10=085|8=FIX.4.2|9=57|35=0|34=163|49=server|52=20191113-14:06:17.616|56=client|10=087|8=FIX.4.2|9=57|35=0|34=164|49=server|52=20191113-14:06:47.614|56=client|10=089|8=FIX.4.2|9=57|35=0|34=165|49=server|52=20191113-14:07:17.613|56=client|10=087|8=FIX.4.2|9=57|35=0|34=166|49=server|52=20191113-14:07:47.613|56=client|10=091|8=FIX.4.2|9=57|35=0|34=167|49=server|52=20191113-14:08:17.613|56=client|10=090|8=FIX.4.2|9=57|35=0|34=168|49=server|52=20191113-14:08:47.614|56=client|10=095|8=FIX.4.2|9=57|35=0|34=169|49=server|52=20191113-14:09:17.616|56=client|10=096|8=FIX.4.2|9=57|35=0|34=170|49=server|52=20191113-14:09:47.615|56=client|10=090|8=FIX.4.2|9=57|35=0|34=171|49=server|52=20191113-14:10:17.612|56=client|10=077|8=FIX.4.2|9=57|35=0|34=172|49=server|52=20191113-14:10:47.609|56=client|10=087|8=FIX.4.2|9=57|35=0|34=173|49=server|52=20191113-14:11:17.609|56=client|10=086|8=FIX.4.2|9=57|35=0|34=174|49=server|52=20191113-14:11:47.615|56=client|10=087|8=FIX.4.2|9=57|35=0|34=175|49=server|52=20191113-14:12:17.613|56=client|10=084|8=FIX.4.2|9=57|35=0|34=176|49=server|52=20191113-14:12:47.606|56=client|10=090|8=FIX.4.2|9=57|35=0|34=177|49=server|52=20191113-14:13:17.605|56=client|10=088|8=FIX.4.2|9=57|35=0|34=178|49=server|52=20191113-14:13:47.605|56=client|10=092|8=FIX.4.2|9=57|35=0|34=179|49=server|52=20191113-14:14:17.614|56=client|10=091|8=FIX.4.2|9=57|35=0|34=180|49=server|52=20191113-14:14:47.605|56=client|10=086|8=FIX.4.2|9=57|35=0|34=181|49=server|52=20191113-14:15:17.612|56=client|10=083|8=FIX.4.2|9=57|35=0|34=182|49=server|52=20191113-14:15:47.613|56=client|10=088|8=FIX.4.2|9=57|35=0|34=183|49=server|52=20191113-14:16:17.605|56=client|10=088|8=FIX.4.2|9=57|35=0|34=184|49=server|52=20191113-14:16:47.607|56=client|10=094|8=FIX.4.2|9=57|35=0|34=185|49=server|52=20191113-14:17:17.607|56=client|10=093|8=FIX.4.2|9=57|35=0|34=186|49=server|52=20191113-14:17:47.607|56=client|10=097|8=FIX.4.2|9=57|35=0|34=187|49=server|52=20191113-14:18:17.609|56=client|10=098|8=FIX.4.2|9=57|35=0|34=188|49=server|52=20191113-14:18:47.613|56=client|10=097|8=FIX.4.2|9=57|35=0|34=189|49=server|52=20191113-14:19:17.607|56=client|10=099|8=FIX.4.2|9=57|35=0|34=190|49=server|52=20191113-14:19:47.606|56=client|10=093|8=FIX.4.2|9=57|35=0|34=191|49=server|52=20191113-14:20:17.607|56=client|10=084|8=FIX.4.2|9=57|35=0|34=192|49=server|52=20191113-14:20:47.607|56=client|10=088|8=FIX.4.2|9=57|35=0|34=193|49=server|52=20191113-14:21:17.607|56=client|10=087|8=FIX.4.2|9=57|35=0|34=194|49=server|52=20191113-14:21:47.606|56=client|10=090|8=FIX.4.2|9=57|35=0|34=195|49=server|52=20191113-14:22:17.612|56=client|10=086|8=FIX.4.2|9=57|35=0|34=196|49=server|52=20191113-14:22:47.606|56=client|10=093|8=FIX.4.2|9=57|35=0|34=197|49=server|52=20191113-14:23:17.607|56=client|10=093|8=FIX.4.2|9=57|35=0|34=198|49=server|52=20191113-14:23:47.607|56=client|10=097|8=FIX.4.2|9=57|35=0|34=199|49=server|52=20191113-14:24:17.607|56=client|10=096|8=FIX.4.2|9=57|35=0|34=200|49=server|52=20191113-14:24:47.607|56=client|10=082|8=FIX.4.2|9=57|35=0|34=201|49=server|52=20191113-14:25:17.610|56=client|10=075|8=FIX.4.2|9=57|35=0|34=202|49=server|52=20191113-14:25:47.603|56=client|10=081|8=FIX.4.2|9=57|35=0|34=203|49=server|52=20191113-14:26:17.607|56=client|10=084|8=FIX.4.2|9=57|35=0|34=204|49=server|52=20191113-14:26:47.607|56=client|10=088|8=FIX.4.2|9=57|35=0|34=205|49=server|52=20191113-14:27:17.606|56=client|10=086|8=FIX.4.2|9=57|35=0|34=206|49=server|52=20191113-14:27:47.606|56=client|10=090|8=FIX.4.2|9=57|35=0|34=207|49=server|52=20191113-14:28:17.601|56=client|10=084|8=FIX.4.2|9=57|35=0|34=208|49=server|52=20191113-14:28:47.606|56=client|10=093|8=FIX.4.2|9=57|35=0|34=209|49=server|52=20191113-14:29:17.609|56=client|10=095|8=FIX.4.2|9=57|35=0|34=210|49=server|52=20191113-14:29:47.609|56=client|10=090|8=FIX.4.2|9=57|35=0|34=211|49=server|52=20191113-14:30:17.746|56=client|10=082|8=FIX.4.2|9=57|35=0|34=212|49=server|52=20191113-14:30:47.752|56=client|10=083|8=FIX.4.2|9=57|35=0|34=213|49=server|52=20191113-14:31:17.746|56=client|10=085|8=FIX.4.2|9=57|35=0|34=214|49=server|52=20191113-14:31:47.747|56=client|10=090|8=FIX.4.2|9=57|35=0|34=215|49=server|52=20191113-14:32:17.748|56=client|10=090|8=FIX.4.2|9=57|35=0|34=216|49=server|52=20191113-14:32:47.747|56=client|10=093|8=FIX.4.2|9=57|35=0|34=217|49=server|52=20191113-14:33:17.753|56=client|10=089|8=FIX.4.2|9=57|35=0|34=218|49=server|52=20191113-14:33:47.746|56=client|10=095|8=FIX.4.2|9=57|35=0|34=219|49=server|52=20191113-14:34:17.747|56=client|10=095|8=FIX.4.2|9=57|35=0|34=220|49=server|52=20191113-14:34:47.746|56=client|10=089|8=FIX.4.2|9=57|35=0|34=221|49=server|52=20191113-14:35:17.751|56=client|10=084|8=FIX.4.2|9=57|35=0|34=222|49=server|52=20191113-14:35:47.753|56=client|10=090|8=FIX.4.2|9=57|35=0|34=223|49=server|52=20191113-14:36:17.746|56=client|10=091|8=FIX.4.2|9=57|35=0|34=224|49=server|52=20191113-14:36:47.747|56=client|10=096|8=FIX.4.2|9=57|35=0|34=225|49=server|52=20191113-14:37:17.747|56=client|10=095|8=FIX.4.2|9=57|35=0|34=226|49=server|52=20191113-14:37:47.747|56=client|10=099|8=FIX.4.2|9=57|35=0|34=227|49=server|52=20191113-14:38:17.749|56=client|10=100|8=FIX.4.2|9=57|35=0|34=228|49=server|52=20191113-14:38:47.752|56=client|10=098|8=FIX.4.2|9=57|35=0|34=229|49=server|52=20191113-14:39:17.747|56=client|10=101|8=FIX.4.2|9=57|35=0|34=230|49=server|52=20191113-14:39:47.748|56=client|10=097|8=FIX.4.2|9=57|35=0|34=231|49=server|52=20191113-14:40:17.751|56=client|10=081|8=FIX.4.2|9=57|35=0|34=232|49=server|52=20191113-14:40:48.601|56=client|10=080|8=FIX.4.2|9=57|35=0|34=233|49=server|52=20191113-14:41:18.598|56=client|10=094|8=FIX.4.2|9=57|35=0|34=234|49=server|52=20191113-14:41:48.601|56=client|10=083|8=FIX.4.2|9=57|35=0|34=235|49=server|52=20191113-14:42:18.598|56=client|10=097|8=FIX.4.2|9=57|35=0|34=236|49=server|52=20191113-14:42:48.599|56=client|10=102|8=FIX.4.2|9=57|35=0|34=237|49=server|52=20191113-14:43:18.598|56=client|10=100|8=FIX.4.2|9=57|35=0|34=238|49=server|52=20191113-14:43:48.599|56=client|10=105|8=FIX.4.2|9=57|35=0|34=239|49=server|52=20191113-14:44:18.599|56=client|10=104|8=FIX.4.2|9=57|35=0|34=240|49=server|52=20191113-14:44:48.598|56=client|10=098|8=FIX.4.2|9=57|35=0|34=241|49=server|52=20191113-14:45:18.599|56=client|10=098|8=FIX.4.2|9=57|35=0|34=242|49=server|52=20191113-14:45:48.598|56=client|10=101|8=FIX.4.2|9=57|35=0|34=243|49=server|52=20191113-14:46:18.599|56=client|10=101|8=FIX.4.2|9=57|35=0|34=244|49=server|52=20191113-14:46:48.596|56=client|10=102|8=FIX.4.2|9=57|35=0|34=245|49=server|52=20191113-14:47:18.599|56=client|10=104|8=FIX.4.2|9=57|35=0|34=246|49=server|52=20191113-14:47:48.596|56=client|10=105|8=FIX.4.2|9=57|35=0|34=247|49=server|52=20191113-14:48:18.597|56=client|10=105|8=FIX.4.2|9=57|35=0|34=248|49=server|52=20191113-14:48:48.597|56=client|10=109|8=FIX.4.2|9=57|35=0|34=249|49=server|52=20191113-14:49:18.593|56=client|10=104|8=FIX.4.2|9=57|35=0|34=250|49=server|52=20191113-14:49:48.593|56=client|10=099|8=FIX.4.2|9=57|35=0|34=251|49=server|52=20191113-14:50:18.596|56=client|10=092|8=FIX.4.2|9=57|35=0|34=252|49=server|52=20191113-14:50:48.593|56=client|10=093|8=FIX.4.2|9=57|35=0|34=253|49=server|52=20191113-14:51:18.595|56=client|10=094|